:100000000C9434000C943E000C943E000C943E0082
:100010000C943E000C943E000C943E000C943E0068
:100020000C943E000C943E000C943E000C943E0058
:100030000C943E000C943E000C943E000C943E0048
:100040000C943E000C943E000C943E000C943E0038
:100050000C943E000C943E000C943E000C943E0028
:100060000C943E000C943E0011241FBECFEFD8E04C
:10007000DEBFCDBF0E9440000C9459000C940000DC
:100080008FEF87B9389A5098589A20E43CE94FEF9F
:10009000489902C0409809C0409AC9010197F1F7F8
:1000A00048B9C9010197F1F718B8C9010197F1F7EB
:0600B000EFCFF894FFCF32
:00000001FF
